{
  "contractName": "SoulSwapFactory",
  "abi": [
    {
      "anonymous": false,
      "inputs": [
        {
          "indexed": true,
          "internalType": "address",
          "name": "user",
          "type": "address"
        },
        {
          "indexed": true,
          "internalType": "address",
          "name": "feeToSetter",
          "type": "address"
        }
      ],
      "name": "FeeToSetter",
      "type": "event"
    },
    {
      "anonymous": false,
      "inputs": [
        {
          "indexed": true,
          "internalType": "address",
          "name": "token0",
          "type": "address"
        },
        {
          "indexed": true,
          "internalType": "address",
          "name": "token1",
          "type": "address"
        },
        {
          "indexed": false,
          "internalType": "address",
          "name": "pair",
          "type": "address"
        },
        {
          "indexed": false,
          "internalType": "uint256",
          "name": "",
          "type": "uint256"
        }
      ],
      "name": "PairCreated",
      "type": "event"
    },
    {
      "anonymous": false,
      "inputs": [
        {
          "indexed": true,
          "internalType": "address",
          "name": "user",
          "type": "address"
        },
        {
          "indexed": true,
          "internalType": "address",
          "name": "feeTo",
          "type": "address"
        }
      ],
      "name": "SetFeeTo",
      "type": "event"
    },
    {
      "anonymous": false,
      "inputs": [
        {
          "indexed": true,
          "internalType": "address",
          "name": "user",
          "type": "address"
        },
        {
          "indexed": true,
          "internalType": "address",
          "name": "migrator",
          "type": "address"
        }
      ],
      "name": "SetMigrator",
      "type": "event"
    },
    {
      "constant": true,
      "inputs": [],
      "name": "INIT_CODE_PAIR_HASH",
      "outputs": [
        {
          "internalType": "bytes32",
          "name": "",
          "type": "bytes32"
        }
      ],
      "payable": false,
      "stateMutability": "view",
      "type": "function"
    },
    {
      "constant": true,
      "inputs": [
        {
          "internalType": "uint256",
          "name": "",
          "type": "uint256"
        }
      ],
      "name": "allPairs",
      "outputs": [
        {
          "internalType": "address",
          "name": "",
          "type": "address"
        }
      ],
      "payable": false,
      "stateMutability": "view",
      "type": "function"
    },
    {
      "constant": true,
      "inputs": [],
      "name": "feeTo",
      "outputs": [
        {
          "internalType": "address",
          "name": "",
          "type": "address"
        }
      ],
      "payable": false,
      "stateMutability": "view",
      "type": "function"
    },
    {
      "constant": true,
      "inputs": [],
      "name": "feeToSetter",
      "outputs": [
        {
          "internalType": "address",
          "name": "",
          "type": "address"
        }
      ],
      "payable": false,
      "stateMutability": "view",
      "type": "function"
    },
    {
      "constant": true,
      "inputs": [
        {
          "internalType": "address",
          "name": "",
          "type": "address"
        },
        {
          "internalType": "address",
          "name": "",
          "type": "address"
        }
      ],
      "name": "getPair",
      "outputs": [
        {
          "internalType": "address",
          "name": "",
          "type": "address"
        }
      ],
      "payable": false,
      "stateMutability": "view",
      "type": "function"
    },
    {
      "constant": true,
      "inputs": [],
      "name": "migrator",
      "outputs": [
        {
          "internalType": "address",
          "name": "",
          "type": "address"
        }
      ],
      "payable": false,
      "stateMutability": "view",
      "type": "function"
    },
    {
      "constant": true,
      "inputs": [],
      "name": "totalPairs",
      "outputs": [
        {
          "internalType": "uint256",
          "name": "",
          "type": "uint256"
        }
      ],
      "payable": false,
      "stateMutability": "view",
      "type": "function"
    },
    {
      "constant": false,
      "inputs": [
        {
          "internalType": "address",
          "name": "tokenA",
          "type": "address"
        },
        {
          "internalType": "address",
          "name": "tokenB",
          "type": "address"
        }
      ],
      "name": "createPair",
      "outputs": [
        {
          "internalType": "address",
          "name": "pair",
          "type": "address"
        }
      ],
      "payable": false,
      "stateMutability": "nonpayable",
      "type": "function"
    },
    {
      "constant": false,
      "inputs": [
        {
          "internalType": "address",
          "name": "_feeTo",
          "type": "address"
        }
      ],
      "name": "setFeeTo",
      "outputs": [],
      "payable": false,
      "stateMutability": "nonpayable",
      "type": "function"
    },
    {
      "constant": false,
      "inputs": [
        {
          "internalType": "address",
          "name": "_migrator",
          "type": "address"
        }
      ],
      "name": "setMigrator",
      "outputs": [],
      "payable": false,
      "stateMutability": "nonpayable",
      "type": "function"
    },
    {
      "constant": false,
      "inputs": [
        {
          "internalType": "address",
          "name": "_feeToSetter",
          "type": "address"
        }
      ],
      "name": "setFeeToSetter",
      "outputs": [],
      "payable": false,
      "stateMutability": "nonpayable",
      "type": "function"
    }
  ],
  "bytecode": "0x608060405233600160006101000a81548173ffffffffffffffffffffffffffffffffffffffff021916908373ffffffffffffffffffffffffffffffffffffffff160217905550600060035534801561005657600080fd5b50614ed4806100666000396000f3fe608060405234801561001057600080fd5b50600436106100a95760003560e01c80635d8c32a9116100715780635d8c32a9146102125780637cd07e4714610230578063a2e74af61461027a578063c9c65396146102be578063e6a4390514610362578063f46901ed14610406576100a9565b8063017e7e58146100ae578063094b7415146100f85780631e3dd18b1461014257806323cf3118146101b05780635855a25a146101f4575b600080fd5b6100b661044a565b604051808273ffffffffffffffffffffffffffffffffffffffff1673ffffffffffffffffffffffffffffffffffffffff16815260200191505060405180910390f35b61010061046f565b604051808273ffffffffffffffffffffffffffffffffffffffff1673ffffffffffffffffffffffffffffffffffffffff16815260200191505060405180910390f35b61016e6004803603602081101561015857600080fd5b8101908080359060200190929190505050610495565b604051808273ffffffffffffffffffffffffffffffffffffffff1673ffffffffffffffffffffffffffffffffffffffff16815260200191505060405180910390f35b6101f2600480360360208110156101c657600080fd5b81019080803573ffffffffffffffffffffffffffffffffffffffff1690602001909291905050506104d1565b005b6101fc610654565b6040518082815260200191505060405180910390f35b61021a6106ec565b6040518082815260200191505060405180910390f35b6102386106f2565b604051808273ffffffffffffffffffffffffffffffffffffffff1673ffffffffffffffffffffffffffffffffffffffff16815260200191505060405180910390f35b6102bc6004803603602081101561029057600080fd5b81019080803573ffffffffffffffffffffffffffffffffffffffff169060200190929190505050610718565b005b610320600480360360408110156102d457600080fd5b81019080803573ffffffffffffffffffffffffffffffffffffffff169060200190929190803573ffffffffffffffffffffffffffffffffffffffff16906020019092919050505061089b565b604051808273ffffffffffffffffffffffffffffffffffffffff1673ffffffffffffffffffffffffffffffffffffffff16815260200191505060405180910390f35b6103c46004803603604081101561037857600080fd5b81019080803573ffffffffffffffffffffffffffffffffffffffff169060200190929190803573ffffffffffffffffffffffffffffffffffffffff169060200190929190505050610f87565b604051808273ffffffffffffffffffffffffffffffffffffffff1673ffffffffffffffffffffffffffffffffffffffff16815260200191505060405180910390f35b6104486004803603602081101561041c57600080fd5b81019080803573ffffffffffffffffffffffffffffffffffffffff169060200190929190505050610fc9565b005b6000809054906101000a900473ffffffffffffffffffffffffffffffffffffffff1681565b600160009054906101000a900473ffffffffffffffffffffffffffffffffffffffff1681565b600481815481106104a257fe5b906000526020600020016000915054906101000a900473ffffffffffffffffffffffffffffffffffffffff1681565b600160009054906101000a900473ffffffffffffffffffffffffffffffffffffffff1673ffffffffffffffffffffffffffffffffffffffff163373ffffffffffffffffffffffffffffffffffffffff1614610594576040517f08c379a00000000000000000000000000000000000000000000000000000000081526004018080602001828103825260138152602001807f536f756c537761703a20464f5242494444454e0000000000000000000000000081525060200191505060405180910390fd5b80600260006101000a81548173ffffffffffffffffffffffffffffffffffffffff021916908373ffffffffffffffffffffffffffffffffffffffff160217905550600260009054906101000a900473ffffffffffffffffffffffffffffffffffffffff1673ffffffffffffffffffffffffffffffffffffffff163373ffffffffffffffffffffffffffffffffffffffff167fd8ad954fe808212ab9ed7139873e40807dff7995fe36e3d6cdeb8fa00fcebf1060405160405180910390a350565b604051806020016106649061114a565b6020820181038252601f19601f820116604052506040516020018082805190602001908083835b602083106106ae578051825260208201915060208101905060208303925061068b565b6001836020036101000a0380198251168184511680821785525050505050509050019150506040516020818303038152906040528051906020012081565b60035481565b600260009054906101000a900473ffffffffffffffffffffffffffffffffffffffff1681565b600160009054906101000a900473ffffffffffffffffffffffffffffffffffffffff1673ffffffffffffffffffffffffffffffffffffffff163373ffffffffffffffffffffffffffffffffffffffff16146107db576040517f08c379a00000000000000000000000000000000000000000000000000000000081526004018080602001828103825260138152602001807f536f756c537761703a20464f5242494444454e0000000000000000000000000081525060200191505060405180910390fd5b80600160006101000a81548173ffffffffffffffffffffffffffffffffffffffff021916908373ffffffffffffffffffffffffffffffffffffffff160217905550600160009054906101000a900473ffffffffffffffffffffffffffffffffffffffff1673ffffffffffffffffffffffffffffffffffffffff163373ffffffffffffffffffffffffffffffffffffffff167f821fbd06ec282f90b4d21627abefcbd2f838b16d8057504fd66d623d8e22a27360405160405180910390a350565b60008173ffffffffffffffffffffffffffffffffffffffff168373ffffffffffffffffffffffffffffffffffffffff16141561093f576040517f08c379a000000000000000000000000000000000000000000000000000000000815260040180806020018281038252601d8152602001807f536f756c537761703a204944454e544943414c5f41444452455353455300000081525060200191505060405180910390fd5b6000808373ffffffffffffffffffffffffffffffffffffffff168573ffffffffffffffffffffffffffffffffffffffff161061097c57838561097f565b84845b91509150600073ffffffffffffffffffffffffffffffffffffffff168273ffffffffffffffffffffffffffffffffffffffff161415610a26576040517f08c379a00000000000000000000000000000000000000000000000000000000081526004018080602001828103825260168152602001807f536f756c537761703a205a45524f5f414444524553530000000000000000000081525060200191505060405180910390fd5b600073ffffffffffffffffffffffffffffffffffffffff16600560008473ffffffffffffffffffffffffffffffffffffffff1673ffffffffffffffffffffffffffffffffffffffff16815260200190815260200160002060008373ffffffffffffffffffffffffffffffffffffffff1673ffffffffffffffffffffffffffffffffffffffff16815260200190815260200160002060009054906101000a900473ffffffffffffffffffffffffffffffffffffffff1673ffffffffffffffffffffffffffffffffffffffff1614610b64576040517f08c379a00000000000000000000000000000000000000000000000000000000081526004018080602001828103825260158152602001807f536f756c537761703a20504149525f455849535453000000000000000000000081525060200191505060405180910390fd5b606060405180602001610b769061114a565b6020820181038252601f19601f82011660405250905060008383604051602001808373ffffffffffffffffffffffffffffffffffffffff1673ffffffffffffffffffffffffffffffffffffffff1660601b81526014018273ffffffffffffffffffffffffffffffffffffffff1673ffffffffffffffffffffffffffffffffffffffff1660601b815260140192505050604051602081830303815290604052805190602001209050808251602084016000f594508473ffffffffffffffffffffffffffffffffffffffff1663485cc95585856040518363ffffffff1660e01b8152600401808373ffffffffffffffffffffffffffffffffffffffff1673ffffffffffffffffffffffffffffffffffffffff1681526020018273ffffffffffffffffffffffffffffffffffffffff1673ffffffffffffffffffffffffffffffffffffffff16815260200192505050600060405180830381600087803b158015610cdc57600080fd5b505af1158015610cf0573d6000803e3d6000fd5b5050505084600560008673ffffffffffffffffffffffffffffffffffffffff1673ffffffffffffffffffffffffffffffffffffffff16815260200190815260200160002060008573ffffffffffffffffffffffffffffffffffffffff1673ffffffffffffffffffffffffffffffffffffffff16815260200190815260200160002060006101000a81548173ffffffffffffffffffffffffffffffffffffffff021916908373ffffffffffffffffffffffffffffffffffffffff16021790555084600560008573ffffffffffffffffffffffffffffffffffffffff1673ffffffffffffffffffffffffffffffffffffffff16815260200190815260200160002060008673ffffffffffffffffffffffffffffffffffffffff1673ffffffffffffffffffffffffffffffffffffffff16815260200190815260200160002060006101000a81548173ffffffffffffffffffffffffffffffffffffffff021916908373ffffffffffffffffffffffffffffffffffffffff16021790555060048590806001815401808255809150509060018203906000526020600020016000909192909190916101000a81548173ffffffffffffffffffffffffffffffffffffffff021916908373ffffffffffffffffffffffffffffffffffffffff160217905550506003600081548092919060010191905055508273ffffffffffffffffffffffffffffffffffffffff168473ffffffffffffffffffffffffffffffffffffffff167f0d3648bd0f6ba80134a33ba9275ac585d9d315f0ad8355cddefde31afa28d0e987600354604051808373ffffffffffffffffffffffffffffffffffffffff1673ffffffffffffffffffffffffffffffffffffffff1681526020018281526020019250505060405180910390a35050505092915050565b60056020528160005260406000206020528060005260406000206000915091509054906101000a900473ffffffffffffffffffffffffffffffffffffffff1681565b600160009054906101000a900473ffffffffffffffffffffffffffffffffffffffff1673ffffffffffffffffffffffffffffffffffffffff163373ffffffffffffffffffffffffffffffffffffffff161461108c576040517f08c379a00000000000000000000000000000000000000000000000000000000081526004018080602001828103825260138152602001807f536f756c537761703a20464f5242494444454e0000000000000000000000000081525060200191505060405180910390fd5b806000806101000a81548173ffffffffffffffffffffffffffffffffffffffff021916908373ffffffffffffffffffffffffffffffffffffffff1602179055506000809054906101000a900473ffffffffffffffffffffffffffffffffffffffff1673ffffffffffffffffffffffffffffffffffffffff163373ffffffffffffffffffffffffffffffffffffffff167f41d2755f00068d89c23ebc6f1e73ce119a6236a44517ca061f544a3f91c9bca460405160405180910390a350565b613d48806111588339019056fe60806040526001600c5534801561001557600080fd5b5060004690506040518080613cf660529139605201905060405180910390206040518060400160405280600b81526020017f536f756c53776170204c50000000000000000000000000000000000000000000815250805190602001206040518060400160405280600181526020017f3100000000000000000000000000000000000000000000000000000000000000815250805190602001208330604051602001808681526020018581526020018481526020018381526020018273ffffffffffffffffffffffffffffffffffffffff1673ffffffffffffffffffffffffffffffffffffffff16815260200195505050505050604051602081830303815290604052805190602001206003819055505033600560006101000a81548173ffffffffffffffffffffffffffffffffffffffff021916908373ffffffffffffffffffffffffffffffffffffffff160217905550613b81806101756000396000f3fe608060405234801561001057600080fd5b50600436106101a95760003560e01c80636a627842116100f9578063ba9a7a5611610097578063d21220a711610071578063d21220a7146108c4578063d505accf1461090e578063dd62ed3e146109a7578063fff6cae914610a1f576101a9565b8063ba9a7a5614610818578063bc25cf7714610836578063c45a01551461087a576101a9565b80637ecebe00116100d35780637ecebe001461067857806389afcb44146106d057806395d89b411461072f578063a9059cbb146107b2576101a9565b80636a627842146105aa57806370a08231146106025780637464fc3d1461065a576101a9565b806323b872dd116101665780633644e515116101405780633644e515146104ec578063485cc9551461050a5780635909c0d51461056e5780635a3d54931461058c576101a9565b806323b872dd1461042457806330adf81f146104aa578063313ce567146104c8576101a9565b8063022c0d9f146101ae57806306fdde031461025b5780630902f1ac146102de578063095ea7b3146103565780630dfe1681146103bc57806318160ddd14610406575b600080fd5b610259600480360360808110156101c457600080fd5b810190808035906020019092919080359060200190929190803573ffffffffffffffffffffffffffffffffffffffff1690602001909291908035906020019064010000000081111561021557600080fd5b82018360208201111561022757600080fd5b8035906020019184600183028401116401000000008311171561024957600080fd5b9091929391929390505050610a29565b005b610263611233565b6040518080602001828103825283818151815260200191508051906020019080838360005b838110156102a3578082015181840152602081019050610288565b50505050905090810190601f1680156102d05780820380516001836020036101000a031916815260200191505b509250505060405180910390f35b6102e661126c565b60405180846dffffffffffffffffffffffffffff166dffffffffffffffffffffffffffff168152602001836dffffffffffffffffffffffffffff166dffffffffffffffffffffffffffff1681526020018263ffffffff1663ffffffff168152602001935050505060405180910390f35b6103a26004803603604081101561036c57600080fd5b81019080803573ffffffffffffffffffffffffffffffffffffffff169060200190929190803590602001909291905050506112c9565b604051808215151515815260200191505060405180910390f35b6103c46112e0565b604051808273ffffffffffffffffffffffffffffffffffffffff1673ffffffffffffffffffffffffffffffffffffffff16815260200191505060405180910390f35b61040e611306565b6040518082815260200191505060405180910390f35b6104906004803603606081101561043a57600080fd5b81019080803573ffffffffffffffffffffffffffffffffffffffff169060200190929190803573ffffffffffffffffffffffffffffffffffffffff1690602001909291908035906020019092919050505061130c565b604051808215151515815260200191505060405180910390f35b6104b26114d7565b6040518082815260200191505060405180910390f35b6104d06114fe565b604051808260ff1660ff16815260200191505060405180910390f35b6104f4611503565b6040518082815260200191505060405180910390f35b61056c6004803603604081101561052057600080fd5b81019080803573ffffffffffffffffffffffffffffffffffffffff169060200190929190803573ffffffffffffffffffffffffffffffffffffffff169060200190929190505050611509565b005b610576611652565b6040518082815260200191505060405180910390f35b610594611658565b6040518082815260200191505060405180910390f35b6105ec600480360360208110156105c057600080fd5b81019080803573ffffffffffffffffffffffffffffffffffffffff16906020019092919050505061165e565b6040518082815260200191505060405180910390f35b6106446004803603602081101561061857600080fd5b81019080803573ffffffffffffffffffffffffffffffffffffffff169060200190929190505050611b0f565b6040518082815260200191505060405180910390f35b610662611b27565b6040518082815260200191505060405180910390f35b6106ba6004803603602081101561068e57600080fd5b81019080803573ffffffffffffffffffffffffffffffffffffffff169060200190929190505050611b2d565b6040518082815260200191505060405180910390f35b610712600480360360208110156106e657600080fd5b81019080803573ffffffffffffffffffffffffffffffffffffffff169060200190929190505050611b45565b604051808381526020018281526020019250505060405180910390f35b61073761218d565b6040518080602001828103825283818151815260200191508051906020019080838360005b8381101561077757808201518184015260208101905061075c565b50505050905090810190601f1680156107a45780820380516001836020036101000a031916815260200191505b509250505060405180910390f35b6107fe600480360360408110156107c857600080fd5b81019080803573ffffffffffffffffffffffffffffffffffffffff169060200190929190803590602001909291905050506121c6565b604051808215151515815260200191505060405180910390f35b6108206121dd565b6040518082815260200191505060405180910390f35b6108786004803603602081101561084c57600080fd5b81019080803573ffffffffffffffffffffffffffffffffffffffff1690602001909291905050506121e3565b005b6108826124be565b604051808273ffffffffffffffffffffffffffffffffffffffff1673ffffffffffffffffffffffffffffffffffffffff16815260200191505060405180910390f35b6108cc6124e4565b604051808273ffffffffffffffffffffffffffffffffffffffff1673ffffffffffffffffffffffffffffffffffffffff16815260200191505060405180910390f35b6109a5600480360360e081101561092457600080fd5b81019080803573ffffffffffffffffffffffffffffffffffffffff169060200190929190803573ffffffffffffffffffffffffffffffffffffffff1690602001909291908035906020019092919080359060200190929190803560ff169060200190929190803590602001909291908035906020019092919050505061250a565b005b610a09600480360360408110156109bd57600080fd5b81019080803573ffffffffffffffffffffffffffffffffffffffff169060200190929190803573ffffffffffffffffffffffffffffffffffffffff16906020019092919050505061284e565b6040518082815260200191505060405180910390f35b610a27612873565b005b6001600c5414610aa1576040517f08c379a00000000000000000000000000000000000000000000000000000000081526004018080602001828103825260108152602001807f536f756c537761703a204c4f434b45440000000000000000000000000000000081525060200191505060405180910390fd5b6000600c819055506000851180610ab85750600084115b610b0d576040517f08c379a0000000000000000000000000000000000000000000000000000000008152600401808060200182810382526024815260200180613a716024913960400191505060405180910390fd5b600080610b1861126c565b5091509150816dffffffffffffffffffffffffffff1687108015610b4b5750806dffffffffffffffffffffffffffff1686105b610bbd576040517f08c379a00000000000000000000000000000000000000000000000000000000081526004018080602001828103825260208152602001807f536f756c537761703a20494e53554646494349454e545f4c495155494449545981525060200191505060405180910390fd5b6000806000600660009054906101000a900473ffffffffffffffffffffffffffffffffffffffff1690506000600760009054906101000a900473ffffffffffffffffffffffffffffffffffffffff1690508173ffffffffffffffffffffffffffffffffffffffff168973ffffffffffffffffffffffffffffffffffffffff1614158015610c7657508073ffffffffffffffffffffffffffffffffffffffff168973ffffffffffffffffffffffffffffffffffffffff1614155b610ce8576040517f08c379a00000000000000000000000000000000000000000000000000000000081526004018080602001828103825260148152602001807f536f756c537761703a20494e56414c49445f544f00000000000000000000000081525060200191505060405180910390fd5b60008b1115610cfd57610cfc828a8d612af3565b5b60008a1115610d1257610d11818a8c612af3565b5b6000888890501115610dfa578873ffffffffffffffffffffffffffffffffffffffff166348c5b27e338d8d8c8c6040518663ffffffff1660e01b8152600401808673ffffffffffffffffffffffffffffffffffffffff1673ffffffffffffffffffffffffffffffffffffffff168152602001858152602001848152602001806020018281038252848482818152602001925080828437600081840152601f19601f8201169050808301925050509650505050505050600060405180830381600087803b158015610de157600080fd5b505af1158015610df5573d6000803e3d6000fd5b505050505b8173ffffffffffffffffffffffffffffffffffffffff166370a08231306040518263ffffffff1660e01b8152600401808273ffffffffffffffffffffffffffffffffffffffff1673ffffffffffffffffffffffffffffffffffffffff16815260200191505060206040518083038186803b158015610e7757600080fd5b505afa158015610e8b573d6000803e3d6000fd5b505050506040513d6020811015610ea157600080fd5b810190808051906020019092919050505093508073ffffffffffffffffffffffffffffffffffffffff166370a08231306040518263ffffffff1660e01b8152600401808273ffffffffffffffffffffffffffffffffffffffff1673ffffffffffffffffffffffffffffffffffffffff16815260200191505060206040518083038186803b158015610f3157600080fd5b505afa158015610f45573d6000803e3d6000fd5b505050506040513d6020811015610f5b57600080fd5b810190808051906020019092919050505092505050600089856dffffffffffffffffffffffffffff16038311610f92576000610fa8565b89856dffffffffffffffffffffffffffff160383035b9050600089856dffffffffffffffffffffffffffff16038311610fcc576000610fe2565b89856dffffffffffffffffffffffffffff160383035b90506000821180610ff35750600081115b611048576040517f08c379a0000000000000000000000000000000000000000000000000000000008152600401808060200182810382526023815260200180613b2a6023913960400191505060405180910390fd5b6000611084611061600285612d4090919063ffffffff16565b6110766103e888612d4090919063ffffffff16565b612dc690919063ffffffff16565b905060006110c261109f600285612d4090919063ffffffff16565b6110b46103e888612d4090919063ffffffff16565b612dc690919063ffffffff16565b905061110c620f42406110fe896dffffffffffffffffffffffffffff168b6dffffffffffffffffffffffffffff16612d4090919063ffffffff16565b612d4090919063ffffffff16565b61111f8284612d4090919063ffffffff16565b1015611193576040517f08c379a000000000000000000000000000000000000000000000000000000000815260040180806020018281038252600b8152602001807f536f756c537761703a204b00000000000000000000000000000000000000000081525060200191505060405180910390fd5b50506111a184848888612e10565b8873ffffffffffffffffffffffffffffffffffffffff163373ffffffffffffffffffffffffffffffffffffffff167fd78ad95fa46c994b6551d0da85fc275fe613ce37657fb8d5e3d130840159d82284848f8f6040518085815260200184815260200183815260200182815260200194505050505060405180910390a35050505050506001600c819055505050505050565b6040518060400160405280600b81526020017f536f756c53776170204c5000000000000000000000000000000000000000000081525081565b6000806000600860009054906101000a90046dffffffffffffffffffffffffffff1692506008600e9054906101000a90046dffffffffffffffffffffffffffff1691506008601c9054906101000a900463ffffffff169050909192565b60006112d633848461318e565b6001905092915050565b600660009054906101000a900473ffffffffffffffffffffffffffffffffffffffff1681565b60005481565b60007fffffffffffffffffffffffffffffffffffffffffffffffffffffffffffffffff600260008673ffffffffffffffffffffffffffffffffffffffff1673ffffffffffffffffffffffffffffffffffffffff16815260200190815260200160002060003373ffffffffffffffffffffffffffffffffffffffff1673ffffffffffffffffffffffffffffffffffffffff16815260200190815260200160002054146114c15761144082600260008773ffffffffffffffffffffffffffffffffffffffff1673ffffffffffffffffffffffffffffffffffffffff16815260200190815260200160002060003373ffffffffffffffffffffffffffffffffffffffff1673ffffffffffffffffffffffffffffffffffffffff16815260200190815260200160002054612dc690919063ffffffff16565b600260008673ffffffffffffffffffffffffffffffffffffffff1673ffffffffffffffffffffffffffffffffffffffff16815260200190815260200160002060003373ffffffffffffffffffffffffffffffffffffffff1673ffffffffffffffffffffffffffffffffffffffff168152602001908152602001600020819055505b6114cc848484613279565b600190509392505050565b7f6e71edae12b1b97f4d1f60370fef10105fa2faae0126114a169c64845d6126c960001b81565b601281565b60035481565b600560009054906101000a900473ffffffffffffffffffffffffffffffffffffffff1673ffffffffffffffffffffffffffffffffffffffff163373ffffffffffffffffffffffffffffffffffffffff16146115cc576040517f08c379a00000000000000000000000000000000000000000000000000000000081526004018080602001828103825260138152602001807f536f756c537761703a20464f5242494444454e0000000000000000000000000081525060200191505060405180910390fd5b81600660006101000a81548173ffffffffffffffffffffffffffffffffffffffff021916908373ffffffffffffffffffffffffffffffffffffffff16021790555080600760006101000a81548173ffffffffffffffffffffffffffffffffffffffff021916908373ffffffffffffffffffffffffffffffffffffffff1602179055505050565b60095481565b600a5481565b60006001600c54146116d8576040517f08c379a00000000000000000000000000000000000000000000000000000000081526004018080602001828103825260108152602001807f536f756c537761703a204c4f434b45440000000000000000000000000000000081525060200191505060405180910390fd5b6000600c819055506000806116eb61126c565b50915091506000600660009054906101000a900473ffffffffffffffffffffffffffffffffffffffff1673ffffffffffffffffffffffffffffffffffffffff166370a08231306040518263ffffffff1660e01b8152600401808273ffffffffffffffffffffffffffffffffffffffff1673ffffffffffffffffffffffffffffffffffffffff16815260200191505060206040518083038186803b15801561179157600080fd5b505afa1580156117a5573d6000803e3d6000fd5b505050506040513d60208110156117bb57600080fd5b810190808051906020019092919050505090506000600760009054906101000a900473ffffffffffffffffffffffffffffffffffffffff1673ffffffffffffffffffffffffffffffffffffffff166370a08231306040518263ffffffff1660e01b8152600401808273ffffffffffffffffffffffffffffffffffffffff1673ffffffffffffffffffffffffffffffffffffffff16815260200191505060206040518083038186803b15801561186f57600080fd5b505afa158015611883573d6000803e3d6000fd5b505050506040513d602081101561189957600080fd5b8101908080519060200190929190505050905060006118d1856dffffffffffffffffffffffffffff1684612dc690919063ffffffff16565b905060006118f8856dffffffffffffffffffffffffffff1684612dc690919063ffffffff16565b90506000611906878761340d565b9050600080549050600081141561195a576119466103e86119386119338688612d4090919063ffffffff16565b6135ee565b612dc690919063ffffffff16565b985061195560006103e8613650565b6119bd565b6119ba886dffffffffffffffffffffffffffff166119818387612d4090919063ffffffff16565b8161198857fe5b04886dffffffffffffffffffffffffffff166119ad8487612d4090919063ffffffff16565b816119b457fe5b0461376a565b98505b60008911611a16576040517f08c379a0000000000000000000000000000000000000000000000000000000008152600401808060200182810382526027815260200180613a956027913960400191505060405180910390fd5b611a208a8a613650565b611a2c86868a8a612e10565b8115611aa457611a9d6008600e9054906101000a90046dffffffffffffffffffffffffffff166dffffffffffffffffffffffffffff16600860009054906101000a90046dffffffffffffffffffffffffffff166dffffffffffffffffffffffffffff16612d4090919063ffffffff16565b600b819055505b3373ffffffffffffffffffffffffffffffffffffffff167f4c209b5fc8ad50758f13e2e1088ba56a560dff690a1c6fef26394f4c03821c4f8585604051808381526020018281526020019250505060405180910390a250505050505050506001600c81905550919050565b60016020528060005260406000206000915090505481565b600b5481565b60046020528060005260406000206000915090505481565b6000806001600c5414611bc0576040517f08c379a00000000000000000000000000000000000000000000000000000000081526004018080602001828103825260108152602001807f536f756c537761703a204c4f434b45440000000000000000000000000000000081525060200191505060405180910390fd5b6000600c81905550600080541415611c23576040517f08c379a0000000000000000000000000000000000000000000000000000000008152600401808060200182810382526026815260200180613abc6026913960400191505060405180910390fd5b600080611c2e61126c565b50915091506000600660009054906101000a900473ffffffffffffffffffffffffffffffffffffffff1690506000600760009054906101000a900473ffffffffffffffffffffffffffffffffffffffff16905060008273ffffffffffffffffffffffffffffffffffffffff166370a08231306040518263ffffffff1660e01b8152600401808273ffffffffffffffffffffffffffffffffffffffff1673ffffffffffffffffffffffffffffffffffffffff16815260200191505060206040518083038186803b158015611d0057600080fd5b505afa158015611d14573d6000803e3d6000fd5b505050506040513d6020811015611d2a57600080fd5b8101908080519060200190929190505050905060008273ffffffffffffffffffffffffffffffffffffffff166370a08231306040518263ffffffff1660e01b8152600401808273ffffffffffffffffffffffffffffffffffffffff1673ffffffffffffffffffffffffffffffffffffffff16815260200191505060206040518083038186803b158015611dbc57600080fd5b505afa158015611dd0573d6000803e3d6000fd5b505050506040513d6020811015611de657600080fd5b810190808051906020019092919050505090506000600160003073ffffffffffffffffffffffffffffffffffffffff1673ffffffffffffffffffffffffffffffffffffffff1681526020019081526020016000205490506000611e49888861340d565b905060008054905080611e658685612d4090919063ffffffff16565b81611e6c57fe5b049a5080611e838585612d4090919063ffffffff16565b81611e8a57fe5b04995060008b118015611e9d575060008a115b611ef2576040517f08c379a0000000000000000000000000000000000000000000000000000000008152600401808060200182810382526027815260200180613b036027913960400191505060405180910390fd5b611efc3084613783565b611f07878d8d612af3565b611f12868d8c612af3565b8673ffffffffffffffffffffffffffffffffffffffff166370a08231306040518263ffffffff1660e01b8152600401808273ffffffffffffffffffffffffffffffffffffffff1673ffffffffffffffffffffffffffffffffffffffff16815260200191505060206040518083038186803b158015611f8f57600080fd5b505afa158015611fa3573d6000803e3d6000fd5b505050506040513d6020811015611fb957600080fd5b810190808051906020019092919050505094508573ffffffffffffffffffffffffffffffffffffffff166370a08231306040518263ffffffff1660e01b8152600401808273ffffffffffffffffffffffffffffffffffffffff1673ffffffffffffffffffffffffffffffffffffffff16815260200191505060206040518083038186803b15801561204957600080fd5b505afa15801561205d573d6000803e3d6000fd5b505050506040513d602081101561207357600080fd5b8101908080519060200190929190505050935061209285858b8b612e10565b811561210a576121036008600e9054906101000a90046dffffffffffffffffffffffffffff166dffffffffffffffffffffffffffff16600860009054906101000a90046dffffffffffffffffffffffffffff166dffffffffffffffffffffffffffff16612d4090919063ffffffff16565b600b819055505b8b73ffffffffffffffffffffffffffffffffffffffff163373ffffffffffffffffffffffffffffffffffffffff167fdccd412f0b1252819cb1fd330b93224ca42612892bb3f4f789976e6d819364968d8d604051808381526020018281526020019250505060405180910390a35050505050505050506001600c81905550915091565b6040518060400160405280600781526020017f534f554c2d4c500000000000000000000000000000000000000000000000000081525081565b60006121d3338484613279565b6001905092915050565b6103e881565b6001600c541461225b576040517f08c379a00000000000000000000000000000000000000000000000000000000081526004018080602001828103825260108152602001807f536f756c537761703a204c4f434b45440000000000000000000000000000000081525060200191505060405180910390fd5b6000600c819055506000600660009054906101000a900473ffffffffffffffffffffffffffffffffffffffff1690506000600760009054906101000a900473ffffffffffffffffffffffffffffffffffffffff1690506123b182846123ac600860009054906101000a90046dffffffffffffffffffffffffffff166dffffffffffffffffffffffffffff168673ffffffffffffffffffffffffffffffffffffffff166370a08231306040518263ffffffff1660e01b8152600401808273ffffffffffffffffffffffffffffffffffffffff1673ffffffffffffffffffffffffffffffffffffffff16815260200191505060206040518083038186803b15801561236357600080fd5b505afa158015612377573d6000803e3d6000fd5b505050506040513d602081101561238d57600080fd5b8101908080519060200190929190505050612dc690919063ffffffff16565b612af3565b6124b181846124ac6008600e9054906101000a90046dffffffffffffffffffffffffffff166dffffffffffffffffffffffffffff168573ffffffffffffffffffffffffffffffffffffffff166370a08231306040518263ffffffff1660e01b8152600401808273ffffffffffffffffffffffffffffffffffffffff1673ffffffffffffffffffffffffffffffffffffffff16815260200191505060206040518083038186803b15801561246357600080fd5b505afa158015612477573d6000803e3d6000fd5b505050506040513d602081101561248d57600080fd5b8101908080519060200190929190505050612dc690919063ffffffff16565b612af3565b50506001600c8190555050565b600560009054906101000a900473ffffffffffffffffffffffffffffffffffffffff1681565b600760009054906101000a900473ffffffffffffffffffffffffffffffffffffffff1681565b42841015612580576040517f08c379a00000000000000000000000000000000000000000000000000000000081526004018080602001828103825260118152602001807f536f756c537761703a204558504952454400000000000000000000000000000081525060200191505060405180910390fd5b60006003547f6e71edae12b1b97f4d1f60370fef10105fa2faae0126114a169c64845d6126c960001b898989600460008e73ffffffffffffffffffffffffffffffffffffffff1673ffffffffffffffffffffffffffffffffffffffff1681526020019081526020016000206000815480929190600101919050558a604051602001808781526020018673ffffffffffffffffffffffffffffffffffffffff1673ffffffffffffffffffffffffffffffffffffffff1681526020018573ffffffffffffffffffffffffffffffffffffffff1673ffffffffffffffffffffffffffffffffffffffff16815260200184815260200183815260200182815260200196505050505050506040516020818303038152906040528051906020012060405160200180807f190100000000000000000000000000000000000000000000000000000000000081525060020183815260200182815260200192505050604051602081830303815290604052805190602001209050600060018286868660405160008152602001604052604051808581526020018460ff1660ff1681526020018381526020018281526020019450505050506020604051602081039080840390855afa158015612752573d6000803e3d6000fd5b505050602060405103519050600073ffffffffffffffffffffffffffffffffffffffff168173ffffffffffffffffffffffffffffffffffffffff16141580156127c657508873ffffffffffffffffffffffffffffffffffffffff168173ffffffffffffffffffffffffffffffffffffffff16145b612838576040517f08c379a000000000000000000000000000000000000000000000000000000000815260040180806020018281038252601b8152602001807f536f756c537761703a20494e56414c49445f5349474e4154555245000000000081525060200191505060405180910390fd5b61284389898961318e565b505050505050505050565b6002602052816000526040600020602052806000526040600020600091509150505481565b6001600c54146128eb576040517f08c379a00000000000000000000000000000000000000000000000000000000081526004018080602001828103825260108152602001807f536f756c537761703a204c4f434b45440000000000000000000000000000000081525060200191505060405180910390fd5b6000600c81905550612ae9600660009054906101000a900473ffffffffffffffffffffffffffffffffffffffff1673ffffffffffffffffffffffffffffffffffffffff166370a08231306040518263ffffffff1660e01b8152600401808273ffffffffffffffffffffffffffffffffffffffff1673ffffffffffffffffffffffffffffffffffffffff16815260200191505060206040518083038186803b15801561299557600080fd5b505afa1580156129a9573d6000803e3d6000fd5b505050506040513d60208110156129bf57600080fd5b8101908080519060200190929190505050600760009054906101000a900473ffffffffffffffffffffffffffffffffffffffff1673ffffffffffffffffffffffffffffffffffffffff166370a08231306040518263ffffffff1660e01b8152600401808273ffffffffffffffffffffffffffffffffffffffff1673ffffffffffffffffffffffffffffffffffffffff16815260200191505060206040518083038186803b158015612a6f57600080fd5b505afa158015612a83573d6000803e3d6000fd5b505050506040513d6020811015612a9957600080fd5b8101908080519060200190929190505050600860009054906101000a90046dffffffffffffffffffffffffffff166008600e9054906101000a90046dffffffffffffffffffffffffffff16612e10565b6001600c81905550565b600060608473ffffffffffffffffffffffffffffffffffffffff166040518060400160405280601981526020017f7472616e7366657228616464726573732c75696e743235362900000000000000815250805190602001208585604051602401808373ffffffffffffffffffffffffffffffffffffffff1673ffffffffffffffffffffffffffffffffffffffff16815260200182815260200192505050604051602081830303815290604052907bffffffffffffffffffffffffffffffffffffffffffffffffffffffff19166020820180517bffffffffffffffffffffffffffffffffffffffffffffffffffffffff83818316178352505050506040518082805190602001908083835b60208310612c205780518252602082019150602081019050602083039250612bfd565b6001836020036101000a0380198251168184511680821785525050505050509050019150506000604051808303816000865af19150503d8060008114612c82576040519150601f19603f3d011682016040523d82523d6000602084013e612c87565b606091505b5091509150818015612cc75750600081511480612cc65750808060200190516020811015612cb457600080fd5b81019080805190602001909291905050505b5b612d39576040517f08c379a00000000000000000000000000000000000000000000000000000000081526004018080602001828103825260198152602001807f536f756c537761703a205452414e534645525f4641494c45440000000000000081525060200191505060405180910390fd5b5050505050565b600080831415612d535760009050612dc0565b6000828402905082848281612d6457fe5b0414612dbb576040517f08c379a0000000000000000000000000000000000000000000000000000000008152600401808060200182810382526021815260200180613ae26021913960400191505060405180910390fd5b809150505b92915050565b6000612e0883836040518060400160405280601e81526020017f536166654d6174683a207375627472616374696f6e206f766572666c6f77000081525061389d565b905092915050565b7fffffffffffffffffffffffffffffffffffffffffffffffffffffffffffffffff6dffffffffffffffffffffffffffff168411158015612e8057507fffffffffffffffffffffffffffffffffffffffffffffffffffffffffffffffff6dffffffffffffffffffffffffffff168311155b612ef2576040517f08c379a00000000000000000000000000000000000000000000000000000000081526004018080602001828103825260128152602001807f536f756c537761703a204f564552464c4f57000000000000000000000000000081525060200191505060405180910390fd5b60006401000000004281612f0257fe5b06905060006008601c9054906101000a900463ffffffff168203905060008163ffffffff16118015612f4557506000846dffffffffffffffffffffffffffff1614155b8015612f6257506000836dffffffffffffffffffffffffffff1614155b15613044578063ffffffff16612fa785612f7b8661395d565b7bffffffffffffffffffffffffffffffffffffffffffffffffffffffff1661398890919063ffffffff16565b7bffffffffffffffffffffffffffffffffffffffffffffffffffffffff16026009600082825401925050819055508063ffffffff1661301584612fe98761395d565b7bffffffffffffffffffffffffffffffffffffffffffffffffffffffff1661398890919063ffffffff16565b7bffffffffffffffffffffffffffffffffffffffffffffffffffffffff1602600a600082825401925050819055505b85600860006101000a8154816dffffffffffffffffffffffffffff02191690836dffffffffffffffffffffffffffff160217905550846008600e6101000a8154816dffffffffffffffffffffffffffff02191690836dffffffffffffffffffffffffffff160217905550816008601c6101000a81548163ffffffff021916908363ffffffff1602179055507f1c411e9a96e071241c2f21f7726b17ae89e3cab4c78be50e062b03a9fffbbad1600860009054906101000a90046dffffffffffffffffffffffffffff166008600e9054906101000a90046dffffffffffffffffffffffffffff1660405180836dffffffffffffffffffffffffffff166dffffffffffffffffffffffffffff168152602001826dffffffffffffffffffffffffffff166dffffffffffffffffffffffffffff1681526020019250505060405180910390a1505050505050565b80600260008573ffffffffffffffffffffffffffffffffffffffff1673ffffffffffffffffffffffffffffffffffffffff16815260200190815260200160002060008473ffffffffffffffffffffffffffffffffffffffff1673ffffffffffffffffffffffffffffffffffffffff168152602001908152602001600020819055508173ffffffffffffffffffffffffffffffffffffffff168373ffffffffffffffffffffffffffffffffffffffff167f8c5be1e5ebec7d5bd14f71427d1e84f3dd0314c0f7b2291e5b200ac8c7c3b925836040518082815260200191505060405180910390a3505050565b6132cb81600160008673ffffffffffffffffffffffffffffffffffffffff1673ffffffffffffffffffffffffffffffffffffffff16815260200190815260200160002054612dc690919063ffffffff16565b600160008573ffffffffffffffffffffffffffffffffffffffff1673ffffffffffffffffffffffffffffffffffffffff1681526020019081526020016000208190555061336081600160008573ffffffffffffffffffffffffffffffffffffffff1673ffffffffffffffffffffffffffffffffffffffff168152602001908152602001600020546139e890919063ffffffff16565b600160008473ffffffffffffffffffffffffffffffffffffffff1673ffffffffffffffffffffffffffffffffffffffff168152602001908152602001600020819055508173ffffffffffffffffffffffffffffffffffffffff168373ffffffffffffffffffffffffffffffffffffffff167fddf252ad1be2c89b69c2b068fc378daa952ba7f163c4a11628f55a4df523b3ef836040518082815260200191505060405180910390a3505050565b600080600560009054906101000a900473ffffffffffffffffffffffffffffffffffffffff1673ffffffffffffffffffffffffffffffffffffffff1663017e7e586040518163ffffffff1660e01b815260040160206040518083038186803b15801561347857600080fd5b505afa15801561348c573d6000803e3d6000fd5b505050506040513d60208110156134a257600080fd5b81019080805190602001909291905050509050600073ffffffffffffffffffffffffffffffffffffffff168173ffffffffffffffffffffffffffffffffffffffff16141591506000600b54905082156135d457600081146135cf57600061353a613535866dffffffffffffffffffffffffffff16886dffffffffffffffffffffffffffff16612d4090919063ffffffff16565b6135ee565b90506000613547836135ee565b9050808211156135cc57600061357a6135698385612dc690919063ffffffff16565b600054612d4090919063ffffffff16565b905060006135a483613596600387612d4090919063ffffffff16565b6139e890919063ffffffff16565b905060008183816135b157fe5b04905060008111156135c8576135c78782613650565b5b5050505b50505b6135e6565b600081146135e5576000600b819055505b5b505092915050565b6000600382111561363d57819050600060016002848161360a57fe5b040190505b818110156136375780915060028182858161362657fe5b04018161362f57fe5b04905061360f565b5061364b565b6000821461364a57600190505b5b919050565b613665816000546139e890919063ffffffff16565b6000819055506136bd81600160008573ffffffffffffffffffffffffffffffffffffffff1673ffffffffffffffffffffffffffffffffffffffff168152602001908152602001600020546139e890919063ffffffff16565b600160008473ffffffffffffffffffffffffffffffffffffffff1673ffffffffffffffffffffffffffffffffffffffff168152602001908152602001600020819055508173ffffffffffffffffffffffffffffffffffffffff16600073ffffffffffffffffffffffffffffffffffffffff167fddf252ad1be2c89b69c2b068fc378daa952ba7f163c4a11628f55a4df523b3ef836040518082815260200191505060405180910390a35050565b6000818310613779578161377b565b825b905092915050565b6137d581600160008573ffffffffffffffffffffffffffffffffffffffff1673ffffffffffffffffffffffffffffffffffffffff16815260200190815260200160002054612dc690919063ffffffff16565b600160008473ffffffffffffffffffffffffffffffffffffffff1673ffffffffffffffffffffffffffffffffffffffff1681526020019081526020016000208190555061382d81600054612dc690919063ffffffff16565b600081905550600073ffffffffffffffffffffffffffffffffffffffff168273ffffffffffffffffffffffffffffffffffffffff167fddf252ad1be2c89b69c2b068fc378daa952ba7f163c4a11628f55a4df523b3ef836040518082815260200191505060405180910390a35050565b600083831115829061394a576040517f08c379a00000000000000000000000000000000000000000000000000000000081526004018080602001828103825283818151815260200191508051906020019080838360005b8381101561390f5780820151818401526020810190506138f4565b50505050905090810190601f16801561393c5780820380516001836020036101000a031916815260200191505b509250505060405180910390fd5b5060008385039050809150509392505050565b60006e010000000000000000000000000000826dffffffffffffffffffffffffffff16029050919050565b6000816dffffffffffffffffffffffffffff167bffffffffffffffffffffffffffffffffffffffffffffffffffffffff16837bffffffffffffffffffffffffffffffffffffffffffffffffffffffff16816139df57fe5b04905092915050565b600080828401905083811015613a66576040517f08c379a000000000000000000000000000000000000000000000000000000000815260040180806020018281038252601b8152602001807f536166654d6174683a206164646974696f6e206f766572666c6f77000000000081525060200191505060405180910390fd5b809150509291505056fe536f756c537761703a20494e53554646494349454e545f4f55545055545f414d4f554e54536f756c537761703a20494e53554646494349454e545f4c49515549444954595f4d494e5445445468652076616c7565206f6620746f74616c537570706c79206d757374206e6f742062652030536166654d6174683a206d756c7469706c69636174696f6e206f766572666c6f77536f756c537761703a20494e53554646494349454e545f4c49515549444954595f4255524e4544536f756c537761703a20494e53554646494349454e545f494e5055545f414d4f554e54a265627a7a7231582073bf01aaac23fed52d0d1285e34e6cdaab0f4c7e9bdf137c10117c679f22d1a464736f6c63430005100032454950373132446f6d61696e28737472696e67206e616d652c737472696e672076657273696f6e2c75696e7432353620636861696e49642c6164647265737320766572696679696e67436f6e747261637429a265627a7a72315820f05fab150db00096d739b1cbbeed1ef727e48b390172bb8bd140f9d4acaa2f2464736f6c63430005100032",
  "source": "// SPDX-License-Identifier: MIT\n\npragma solidity >=0.5.16;\n\nimport './interfaces/ISoulSwapFactory.sol';\nimport './SoulSwapPair.sol';\n\ncontract SoulSwapFactory is ISoulSwapFactory {\n    bytes32 public constant INIT_CODE_PAIR_HASH = keccak256(abi.encodePacked(type(SoulSwapPair).creationCode));\n\n    address public feeTo;\n    address public feeToSetter = msg.sender;\n    address public migrator;\n    uint256 public totalPairs = 0;\n    address[] public allPairs;\n\n    mapping(address => mapping(address => address)) public getPair;\n\n    event PairCreated(address indexed token0, address indexed token1, address pair, uint);\n    event SetFeeTo(address indexed user, address indexed feeTo);\n    event SetMigrator(address indexed user, address indexed migrator);\n    event FeeToSetter(address indexed user, address indexed feeToSetter);\n\n    function createPair(address tokenA, address tokenB) external returns (address pair) {\n        require(tokenA != tokenB, 'SoulSwap: IDENTICAL_ADDRESSES');\n        (address token0, address token1) = tokenA < tokenB ? (tokenA, tokenB) : (tokenB, tokenA);\n        require(token0 != address(0), 'SoulSwap: ZERO_ADDRESS');\n        require(getPair[token0][token1] == address(0), 'SoulSwap: PAIR_EXISTS'); // single check is sufficient\n\n        bytes memory bytecode = type(SoulSwapPair).creationCode;\n        bytes32 salt = keccak256(abi.encodePacked(token0, token1));\n        \n        assembly { pair := create2(0, add(bytecode, 32), mload(bytecode), salt) }\n        SoulSwapPair(pair).initialize(token0, token1);\n        getPair[token0][token1] = pair;\n        getPair[token1][token0] = pair; // populate mapping in the reverse direction\n        allPairs.push(pair);\n        totalPairs++;\n        \n        emit PairCreated(token0, token1, pair, totalPairs);\n    }\n\n    function setFeeTo(address _feeTo) external {\n        require(msg.sender == feeToSetter, 'SoulSwap: FORBIDDEN');\n        feeTo = _feeTo;\n        \n        emit SetFeeTo(msg.sender, feeTo);\n    }\n\n    function setMigrator(address _migrator) external {\n        require(msg.sender == feeToSetter, 'SoulSwap: FORBIDDEN');\n        migrator = _migrator;\n        \n        emit SetMigrator(msg.sender, migrator);\n    }\n\n    function setFeeToSetter(address _feeToSetter) external {\n        require(msg.sender == feeToSetter, 'SoulSwap: FORBIDDEN');\n        feeToSetter = _feeToSetter;\n        \n        emit FeeToSetter(msg.sender, feeToSetter);\n    }\n\n}\n",
  "sourcePath": "/Users/Uni/Documents/GitHub/soulswap/soulswap-core/contracts/SoulSwapFactory.sol",
  "compiler": {
    "name": "solc",
    "version": "0.5.16+commit.9c3226ce.Emscripten.clang"
  },
  "schemaVersion": "3.4.1",
  "updatedAt": "2021-07-22T08:22:40.031Z",
  "devdoc": {
    "methods": {}
  },
  "userdoc": {
    "methods": {}
  }
}